:10000000D2C002C2E3C0E2C0E1C01DC3DFC0DEC097
:10001000DDC0DCC030C3DAC0D9C0D8C0D7C0005EF4
:10002000BCE2613FDD83C29C7E20A3FD1F419DC3D6
:10003000217FFCA2401E5F01E3BD3E6082DC237D88
:100040009FC1421CFEA0E1BF5D0380DE3C62BEE0BA
:10005000025CDF81633D7C22C09E1D43A1FF4618E8
:10006000FAA427799BC584DA3866E5BB5907DB8596
:100070006739BAE406581947A5FB7826C49A653B48
:10008000D987045AB8E6A7F91B45C6987A24F8A67A
:10009000441A99C7257B3A6486D85B05E7B98CD2A8
:1000A000306EEDB3510F4E10F2AC2F7193CD114F56
:1000B000ADF3702ECC92D38D6F31B2EC0E50AFF108
:1000C000134DCE90722C6D33D18F0C52B0EE326C3A
:1000D0008ED0530DEFB1F0AE4C1291CF2D73CA9468
:1000E0007628ABF517490856B4EA6937D58B570916
:1000F000EBB536688AD495CB2977F4AA4816E9B7C8
:10010000550B88D6346A2B7597C94A14F6A8742AF9
:10011000C896154BA9F7B6E80A54D7896B354445FC
:100120004C4C303041433034353139353032334343
:100130004E30434446353737323433383635513212
:100140003746324130353D94FFFFFFFFFFFFFFFF91
:10015000FFFFFFFFFFFFFFFFFFFFFFFFFFFFFFFFAF
:10016000FFFFFFFFFFFFFFFFFFFFFFFFFFFFFFFF9F
:10017000FFFFFFFFFFFFFFFFFFFFFFFFFFFFFFFF8F
:10018000FFFFFFFFFFFFFFFFFFFFFFFFFFFFFFFF7F
:10019000FFFFFFFFFFFFFFFFFFFFFFFFFFFF095212
:1001A0008DED650000EF11241FBECFE5D2E0DEBF6C
:1001B000CDBF10E0A0E6B0E0ECE8F7E002C00590AB
:1001C0000D92A637B107D9F782D2DEC219CF2FEF31
:1001D000260F662359F0DC0180E0ED91E827F0E07E
:1001E000E25EFF4F84912150C0F7089580E00895AA
:1001F000E0E6F0E0608986859785B8C2CF93DF930B
:10020000C0E6D0E08E859F8524E028838D839E8381
:1002100020E8281B2F8322E028871A8619861A8255
:100220001B829CD28C83809581708D87DF91CF91CA
:1002300008950F931F93CF93DF9300D01F92CDB7F4
:10024000DEB700E610E0F8018385898386858A831E
:1002500087858B8363E0CE010196B9DFF801808B3F
:1002600094E0908320E730E03683258391E0978304
:1002700010862EEF30E0328721871282138284832A
:100280008170892785870F900F900F90DF91CF9114
:100290001F910F9108950F931F93CF93DF9300D079
:1002A00000D0CDB7DEB700E610E0F8018385898382
:1002B00086858A8387858B8380898C8364E0CE01E1
:1002C000019685DFF801818B84E0808380E790E0F0
:1002D0009683858381E08783108628EF30E032871C
:1002E0002187128213829089948391708927858750
:1002F0000F900F900F900F90DF91CF911F910F9162
:10030000089580916B00833309F45DC0F0F18C3C5B
:1003100009F1803F09F077C080916C00882309F4CF
:1003200051C083E0809360008EE690E09093660079
:100330008093650082E08093670089E191E090936B
:100340006A0080936900109262001092630010921C
:100350006400089581E080936C0093E090936000C6
:100360002BE630E0309366002093650080936700B1
:1003700081E891E090936A00809369001092620096
:10038000109263001092640008958F30D9F5809127
:100390006C008823B9F083E0809360002EE630E0A3
:1003A0003093660020936500809367008BE491E0B2
:1003B00090936A008093690010926200109263002B
:1003C00010926400089584E080936000EEE9F1E00B
:1003D000F0936600E093650088E08093670081E019
:1003E0008093680010926A00109269001092620077
:1003F00010926300E491E0936400E170E827E093D9
:100400006D000895089508951F920F920FB60F92F0
:100410001124EF92FF920F931F932F933F934F93CB
:100420005F936F937F938F939F93AF93BF93CF937C
:10043000DF93EF93FF9380916100D0E412E008EC2A
:10044000EE24E394F12C1AC0C0E090916D00992342
:1004500021F0C298BA9A10926D009091600093308A
:1004600009F473C0943009F443C09130A1F112BE75
:1004700013BF78948C2F0AB606FE10C0DABFC1E015
:100480008111E2CF80916000813039F18AE18A9553
:10049000F1F700C08C2F0AB606FCF0CF86B382FBC2
:1004A000882780F980936100FF91EF91DF91CF91D0
:1004B000BF91AF919F918F917F916F915F914F917C
:1004C0003F912F911F910F91FF90EF900F900FBED2
:1004D0000F901F9018958111CACFF89448E24A9561
:1004E000F1F710936000C298BA9A09BD7894CECF04
:1004F00040E54A95F1F7809163008F5F883009F4F9
:100500005DC090916000992379F02091640030E003
:10051000082E02C0359527950A94E2F721703327FB
:1005200051E0252720936D0080936300BA98C29A0A
:100530008091600081119BCFE0916900F0916A0089
:10054000309709F494CF099592CF9AE19A95F1F7F3
:1005500000C080916300B2990AC08F5F8830A9F013
:100560009091600080936300911181CFE5CF9091CD
:1005700064009701082E01C0220F0A94EAF7292B84
:10058000209364008F5F883059F79091620081E07A
:10059000890F20916400E0916500F0916600E90FF9
:1005A000F11D20831092640090916700891779F102
:1005B000909160008093620080E0D4CF90916200BF
:1005C0009F5F809167009817B1F0909362008091CF
:1005D0006800813069F108F18230E9F4209165000A
:1005E00030916600A901490F511DCA01B7D080930F
:1005F000640080E086CF1092600080E0809363000A
:10060000BA98C29A80916000811131CF95CF109233
:10061000600090E0CFCF80E074CFE0916500F09172
:100620006600E90FF11D80818093640080E069CF4E
:10063000E0916500F0916600E90FF11DE491E0930F
:10064000640080E05ECF1F920F920FB60F921124CC
:100650008F9313BE80E188BF80916100811105C036
:1006600081E08093600010926C008F910F900FBE1C
:100670000F901F9018951F920F920FB60F92112492
:100680008F939F93809160008230D1F4BA98C29A80
:1006900083E0809360008BE690E090936600809307
:1006A000650081E08093670081E891E090936A00A3
:1006B00080936900109262001092630010926400AF
:1006C0009F918F910F900FBE0F901F90189585E707
:1006D00081BF479A80B58B6080BD17BA8FEF88BB0A
:1006E000C298BA9A80E090E039D08F3F69F4C0E0B8
:1006F000D0E0FE01E25EFE4F6491CE0137D021963C
:10070000C038D105B1F704C08AE18A95F1F700C07D
:10071000BA98C29A89B7826189BF19BC85B78D7FA3
:10072000816085BF8BB780648BBF80E48ABF86B34E
:1007300082FB882780F980936100789485B7877E53
:1007400085BF85B7846885BF8B7F85BF85B780628D
:1007500085BF889585B78F7D85BFF3CFE199FECFA3
:100760009FBB8EBBE09A99278DB30895262FE19900
:10077000FECF1CBA9FBB8EBB2DBB0FB6F894E29A7E
:0C078000E19A0FBE01960895F894FFCF97
:10078C00000100000000000000000000000000005C
:06079C0000000000000057
:00000001FF
